{
  "contractName": "SupplyChain",
  "abi": [
    {
      "inputs": [],
      "stateMutability": "nonpayable",
      "type": "constructor"
    },
    {
      "anonymous": false,
      "inputs": [
        {
          "indexed": false,
          "internalType": "string",
          "name": "id",
          "type": "string"
        },
        {
          "indexed": false,
          "internalType": "enum State",
          "name": "state",
          "type": "uint8"
        }
      ],
      "name": "ReportState",
      "type": "event"
    },
    {
      "anonymous": false,
      "inputs": [
        {
          "indexed": false,
          "internalType": "string",
          "name": "id",
          "type": "string"
        },
        {
          "indexed": false,
          "internalType": "enum State",
          "name": "state",
          "type": "uint8"
        },
        {
          "indexed": false,
          "internalType": "string",
          "name": "temperature",
          "type": "string"
        },
        {
          "indexed": false,
          "internalType": "string",
          "name": "position",
          "type": "string"
        },
        {
          "indexed": false,
          "internalType": "address",
          "name": "sensor",
          "type": "address"
        },
        {
          "indexed": false,
          "internalType": "uint256",
          "name": "timestamp",
          "type": "uint256"
        }
      ],
      "name": "Track",
      "type": "event"
    },
    {
      "anonymous": false,
      "inputs": [
        {
          "indexed": false,
          "internalType": "string",
          "name": "id",
          "type": "string"
        },
        {
          "indexed": false,
          "internalType": "address",
          "name": "from",
          "type": "address"
        },
        {
          "indexed": false,
          "internalType": "address",
          "name": "to",
          "type": "address"
        }
      ],
      "name": "TransferKeeper",
      "type": "event"
    },
    {
      "anonymous": false,
      "inputs": [
        {
          "indexed": false,
          "internalType": "string",
          "name": "id",
          "type": "string"
        },
        {
          "indexed": false,
          "internalType": "address",
          "name": "from",
          "type": "address"
        },
        {
          "indexed": false,
          "internalType": "address",
          "name": "to",
          "type": "address"
        }
      ],
      "name": "TransferOwner",
      "type": "event"
    },
    {
      "inputs": [
        {
          "internalType": "string",
          "name": "id",
          "type": "string"
        }
      ],
      "name": "getAsset",
      "outputs": [
        {
          "components": [
            {
              "internalType": "uint256",
              "name": "volume",
              "type": "uint256"
            },
            {
              "internalType": "string",
              "name": "temperature",
              "type": "string"
            },
            {
              "internalType": "string",
              "name": "position",
              "type": "string"
            },
            {
              "internalType": "uint256",
              "name": "price",
              "type": "uint256"
            },
            {
              "internalType": "enum State",
              "name": "state",
              "type": "uint8"
            },
            {
              "internalType": "address",
              "name": "owner",
              "type": "address"
            },
            {
              "internalType": "address",
              "name": "keeper",
              "type": "address"
            }
          ],
          "internalType": "struct AbstractAsset.Asset",
          "name": "",
          "type": "tuple"
        }
      ],
      "stateMutability": "view",
      "type": "function"
    },
    {
      "inputs": [
        {
          "internalType": "address",
          "name": "account",
          "type": "address"
        }
      ],
      "name": "getCarrier",
      "outputs": [
        {
          "internalType": "uint256",
          "name": "",
          "type": "uint256"
        }
      ],
      "stateMutability": "view",
      "type": "function"
    },
    {
      "inputs": [
        {
          "internalType": "address",
          "name": "account",
          "type": "address"
        }
      ],
      "name": "getWH",
      "outputs": [
        {
          "internalType": "uint256",
          "name": "",
          "type": "uint256"
        }
      ],
      "stateMutability": "view",
      "type": "function"
    },
    {
      "inputs": [
        {
          "internalType": "uint256",
          "name": "inventory",
          "type": "uint256"
        }
      ],
      "name": "registerCarrier",
      "outputs": [],
      "stateMutability": "nonpayable",
      "type": "function"
    },
    {
      "inputs": [
        {
          "internalType": "address",
          "name": "account",
          "type": "address"
        }
      ],
      "name": "registerIoT",
      "outputs": [],
      "stateMutability": "nonpayable",
      "type": "function"
    },
    {
      "inputs": [
        {
          "internalType": "uint256",
          "name": "inventory",
          "type": "uint256"
        }
      ],
      "name": "registerWarehouse",
      "outputs": [],
      "stateMutability": "nonpayable",
      "type": "function"
    },
    {
      "inputs": [
        {
          "internalType": "string",
          "name": "id",
          "type": "string"
        },
        {
          "internalType": "uint256",
          "name": "volume",
          "type": "uint256"
        }
      ],
      "name": "create",
      "outputs": [],
      "stateMutability": "nonpayable",
      "type": "function"
    },
    {
      "inputs": [
        {
          "internalType": "string",
          "name": "id",
          "type": "string"
        },
        {
          "internalType": "uint256",
          "name": "price",
          "type": "uint256"
        }
      ],
      "name": "forsale",
      "outputs": [],
      "stateMutability": "nonpayable",
      "type": "function"
    },
    {
      "inputs": [
        {
          "internalType": "string",
          "name": "id",
          "type": "string"
        }
      ],
      "name": "order",
      "outputs": [],
      "stateMutability": "payable",
      "type": "function"
    },
    {
      "inputs": [
        {
          "internalType": "string",
          "name": "id",
          "type": "string"
        }
      ],
      "name": "take",
      "outputs": [],
      "stateMutability": "nonpayable",
      "type": "function"
    },
    {
      "inputs": [
        {
          "internalType": "string",
          "name": "id",
          "type": "string"
        }
      ],
      "name": "delivered",
      "outputs": [],
      "stateMutability": "nonpayable",
      "type": "function"
    },
    {
      "inputs": [
        {
          "internalType": "string",
          "name": "id",
          "type": "string"
        },
        {
          "internalType": "string",
          "name": "temp",
          "type": "string"
        },
        {
          "internalType": "string",
          "name": "position",
          "type": "string"
        }
      ],
      "name": "track",
      "outputs": [],
      "stateMutability": "nonpayable",
      "type": "function"
    }
  ],
  "bytecode": "0x60806040523480156200001157600080fd5b5062000027606464010000000062000056810204565b6200003c606464010000000062000075810204565b620000503364010000000062000091810204565b620000f5565b620000726001338364010000000062000929620000c082021704565b50565b620000726003338364010000000062000929620000c082021704565b3360009081526005602052604090208054600160a060020a031916600160a060020a0392909216919091179055565b600160a060020a03909116600090815260208381526040808320805460ff191660019081179091559490940190529190912055565b6112e680620001056000396000f3fe6080604052600436106100c4576000357c010000000000000000000000000000000000000000000000000000000090048063708a416111610081578063708a41611461019e578063a973fd12146101f5578063c79f5e0814610215578063cd5286d014610235578063f7d5184b14610262578063f87f4a0a1461028257600080fd5b806321e500de146100c957806335884384146100fc57806346f81a871461011e5780634f377e041461013e57806365508e261461015e57806369bad82b1461017e575b600080fd5b3480156100d557600080fd5b506100e96100e4366004610d0d565b610295565b6040519081526020015b60405180910390f35b34801561010857600080fd5b5061011c610117366004610de3565b6102b5565b005b34801561012a57600080fd5b5061011c610139366004610e6b565b6102c6565b34801561014a57600080fd5b5061011c610159366004610eb0565b610355565b34801561016a57600080fd5b506100e9610179366004610d0d565b610364565b34801561018a57600080fd5b5061011c610199366004610ec9565b610382565b3480156101aa57600080fd5b5061011c6101b9366004610d0d565b336000908152600560205260409020805473ffffffffffffffffffffffffffffffffffffffff1916600160a060020a0392909216919091179055565b34801561020157600080fd5b5061011c610210366004610e6b565b61044f565b34801561022157600080fd5b5061011c610230366004610ec9565b610528565b34801561024157600080fd5b50610255610250366004610ec9565b610602565b6040516100f39190610f94565b34801561026e57600080fd5b5061011c61027d366004610eb0565b6107cb565b61011c610290366004610ec9565b6107d7565b600160a060020a0381166000908152600260205260408120545b92915050565b6102c18383833361095e565b505050565b6102d1600133610a20565b6102da57600080fd5b8160006102e8600133610a20565b6102f157600080fd5b826102fb33610295565b1161030557600080fd5b61030f3384610a3f565b61031a846001610a4f565b6103248433610ace565b61032e8433610b84565b8260008560405161033f9190611025565b9081526040519081900360200190205550505050565b61036160013383610929565b50565b600160a060020a0381166000908152600460205260408120546102af565b8060048233600160a060020a03166000826040516103a09190611025565b90815260405190819003602001902060050154600160a060020a0316146103c657600080fd5b6103d1600333610a20565b6103da57600080fd5b610403336000866040516103ee9190611025565b90815260405190819003602001902054610c3d565b61040e846005610a4f565b610449846000866040516104229190611025565b90815260405190819003602001902060040154600160a060020a0361010090910416610b84565b50505050565b81600160058433600160a060020a031660008260405161046f9190611025565b90815260405190819003602001902060040154600160a060020a03610100909104161461049b57600080fd5b8533600160a060020a03166000826040516104b69190611025565b90815260405190819003602001902060050154600160a060020a0316146104dc57600080fd5b6104e7600133610a20565b6104f057600080fd5b6104fb876002610a4f565b8560008860405161050c9190611025565b9081526040519081900360200190206003015550505050505050565b8060036105358133610a20565b61053e57600080fd5b60008360405161054e9190611025565b9081526040519081900360200190205461056733610364565b1161057157600080fd5b61059a336000856040516105859190611025565b90815260405190819003602001902054610c49565b6105ed6000846040516105ad9190611025565b90815260405190819003602001812060050154600160a060020a0316906000906105d8908790611025565b90815260405190819003602001902054610c55565b6105f8836004610a4f565b6102c18333610b84565b61060a610cbf565b60008260405161061a9190611025565b90815260200160405180910390206040518060e00160405290816000820154815260200160018201805461064d90611041565b80601f016020809104026020016040519081016040528092919081815260200182805461067990611041565b80156106c65780601f1061069b576101008083540402835291602001916106c6565b820191906000526020600020905b8154815290600101906020018083116106a957829003601f168201915b505050505081526020016002820180546106df90611041565b80601f016020809104026020016040519081016040528092919081815260200182805461070b90611041565b80156107585780601f1061072d57610100808354040283529160200191610758565b820191906000526020600020905b81548152906001019060200180831161073b57829003601f168201915b505050918352505060038201546020820152600482015460409091019060ff16600581111561078957610789610f56565b600581111561079a5761079a610f56565b81526004820154600160a060020a036101009091048116602083015260059092015490911660409091015292915050565b61036160033383610929565b8060026000836040516107ea9190611025565b9081526040519081900360200190206003015480610810670de0b6b3a764000034611097565b101561081b57600080fd5b610826600133610a20565b61082f57600080fd5b60008460405161083f9190611025565b9081526040519081900360200190205461085833610295565b1161086257600080fd5b61088b336000866040516108769190611025565b90815260405190819003602001902054610a3f565b6000808560405161089c9190611025565b90815260405190819003602001812060040154600160a060020a0361010090910416903490600081818185875af1925050503d80600081146108fa576040519150601f19603f3d011682016040523d82523d6000602084013e6108ff565b606091505b505090508061090d57600080fd5b610918856003610a4f565b6109228533610ace565b5050505050565b600160a060020a03909116600090815260208381526040808320805460ff191660019081179091559490940190529190912055565b7fed8472e407b0a55a2f94033379683aef9c70176f701f0b2fe5e3111fcade4b0e846000866040516109909190611025565b908152604051908190036020018120600401546109bb929160ff9091169087908790879042906110bc565b60405180910390a1826000856040516109d49190611025565b908152602001604051809103902060010190816109f1919061116f565b5081600085604051610a039190611025565b90815260200160405180910390206002019081610922919061116f565b600160a060020a03166000908152602091909152604090205460ff1690565b610a4b60018383610c61565b5050565b7f04d59123b9511ac3435150a42bde0ad6e00dc802992d7efc3d59f97658dec6c68282604051610a80929190611235565b60405180910390a180600083604051610a999190611025565b908152604051908190036020019020600401805460ff19166001836005811115610ac557610ac5610f56565b02179055505050565b7f4f318d4f210231e677f2842b21751e860381ab303db9094101d7061e59f43abd82600084604051610b009190611025565b90815260405190819003602001812060040154610b329291600160a060020a0361010090920491909116908590611257565b60405180910390a180600083604051610b4b9190611025565b908152602001604051809103902060040160016101000a815481600160a060020a030219169083600160a060020a031602179055505050565b7f0d7f430591ea581e3ecf48a5a885badf9ca9ce96eddb2a2ed0b24f770bb988fe82600084604051610bb69190611025565b90815260405190819003602001812060050154610be19291600160a060020a03909116908590611257565b60405180910390a180600083604051610bfa9190611025565b9081526040519081900360200190206005018054600160a060020a039290921673ffffffffffffffffffffffffffffffffffffffff199092169190911790555050565b610a4b60038383610c95565b610a4b60038383610c61565b610a4b60018383610c95565b600160a060020a038216600090815260018401602052604081208054839290610c8b90849061128a565b9091555050505050565b600160a060020a038216600090815260018401602052604081208054839290610c8b90849061129d565b6040518060e001604052806000815260200160608152602001606081526020016000815260200160006005811115610cf957610cf9610f56565b815260006020820181905260409091015290565b600060208284031215610d1f57600080fd5b8135600160a060020a0381168114610d3657600080fd5b9392505050565b60e060020a634e487b7102600052604160045260246000fd5b600082601f830112610d6757600080fd5b813567ffffffffffffffff80821115610d8257610d82610d3d565b604051601f8301601f19908116603f01168101908282118183101715610daa57610daa610d3d565b81604052838152866020858801011115610dc357600080fd5b836020870160208301376000602085830101528094505050505092915050565b600080600060608486031215610df857600080fd5b833567ffffffffffffffff80821115610e1057600080fd5b610e1c87838801610d56565b94506020860135915080821115610e3257600080fd5b610e3e87838801610d56565b93506040860135915080821115610e5457600080fd5b50610e6186828701610d56565b9150509250925092565b60008060408385031215610e7e57600080fd5b823567ffffffffffffffff811115610e9557600080fd5b610ea185828601610d56565b95602094909401359450505050565b600060208284031215610ec257600080fd5b5035919050565b600060208284031215610edb57600080fd5b813567ffffffffffffffff811115610ef257600080fd5b610efe84828501610d56565b949350505050565b60005b83811015610f21578181015183820152602001610f09565b50506000910152565b60008151808452610f42816020860160208601610f06565b601f01601f19169290920160200192915050565b60e060020a634e487b7102600052602160045260246000fd5b60068110610f905760e060020a634e487b7102600052602160045260246000fd5b9052565b60208152815160208201526000602083015160e06040840152610fbb610100840182610f2a565b90506040840151601f19848303016060850152610fd88282610f2a565b915050606084015160808401526080840151610ff760a0850182610f6f565b5060a0840151600160a060020a0380821660c08601528060c08701511660e086015250508091505092915050565b60008251611037818460208701610f06565b9190910192915050565b60028104600182168061105557607f821691505b6020821081036110785760e060020a634e487b7102600052602260045260246000fd5b50919050565b60e060020a634e487b7102600052601160045260246000fd5b6000826110b75760e060020a634e487b7102600052601260045260246000fd5b500490565b60c0815260006110cf60c0830189610f2a565b6110dc6020840189610f6f565b82810360408401526110ee8188610f2a565b905082810360608401526111028187610f2a565b600160a060020a03959095166080840152505060a00152949350505050565b601f8211156102c1576000818152602081206020601f860104810160208610156111485750805b6020601f860104820191505b8181101561116757828155600101611154565b505050505050565b815167ffffffffffffffff81111561118957611189610d3d565b61119d816111978454611041565b84611121565b602080601f8311600181146111d657600084156111ba5750858301515b60028086026008870290910a6000190419821617865550611167565b600085815260208120601f198616915b82811015611205578886015182559484019460019091019084016111e6565b508582101561122557878501516008601f88160260020a60001904191681555b5050505050600202600101905550565b6040815260006112486040830185610f2a565b9050610d366020830184610f6f565b60608152600061126a6060830186610f2a565b600160a060020a0394851660208401529290931660409091015292915050565b818103818111156102af576102af61107e565b808201808211156102af576102af61107e56fea26469706673582212200a8ee0702c2b5753d6e9d4b91ff4ef5ff2cd96e7da2836b17373fdfa96236d1b64736f6c63430008120033",
  "immutableReferences": {},
  "source": "// SPDX-License-Identifier: GPL-3.0\npragma solidity ^0.8.18;\n\nimport \"./Actors.sol\";\nimport \"./Asset.sol\";\n\ncontract SupplyChain is AbstractAsset, Warehouse, Carrier, IoT {\n\n    constructor() {\n        registerWarehouse(100);\n        registerCarrier(100);\n        registerIoT(msg.sender);\n    }\n\n    modifier entry(string memory id, State state) {\n        // require(assets[id].state == state);\n        _;\n    }\n\n    modifier entry2(string memory id, State state1, State state2) {\n        // require(assets[id].state == state1 || assets[id].state == state2);\n        _;\n    }\n    \n    function create(string memory id, uint volume) external onlyWarehouse entry(id, State.nostate) onlyWarehouse {\n        require(getWH(msg.sender) > volume);\n\n        storeWH(msg.sender, volume);\n        setState(id, State.registered);\n        setOwner(id, msg.sender);\n        setKeeper(id, msg.sender);\n\n        assets[id].volume = volume;\n    }\n\n    function forsale(string memory id, uint price) external entry2(id, State.registered, State.delivered) onlyOwner(id) onlyKeeper(id) onlyWarehouse {\n        setState(id, State.forsale);\n        assets[id].price = price;\n    }\n\n    function order(string memory id) external payable entry(id, State.forsale) isEnough(assets[id].price) onlyWarehouse {\n        require(getWH(msg.sender) > assets[id].volume);\n\n        storeWH(msg.sender, assets[id].volume);\n\n        (bool success,) = assets[id].owner.call{value: msg.value}(\"\");\n        require(success);\n\n        setState(id, State.ordered);\n        setOwner(id, msg.sender);\n    }\n\n    function take(string memory id) external entry(id, State.ordered) onlyCarrier {\n        require(getCarrier(msg.sender) > assets[id].volume);\n\n        storeCarrier(msg.sender, assets[id].volume);\n        releaseWH(assets[id].keeper, assets[id].volume);\n        setState(id, State.intransit);\n        setKeeper(id, msg.sender);\n    }\n\n    function delivered(string memory id) external entry(id, State.intransit) onlyKeeper(id) onlyCarrier {\n        releaseCarrier(msg.sender, assets[id].volume);\n        setState(id, State.delivered);\n        setKeeper(id, assets[id].owner);\n    }\n\n    function track(string memory id, string memory temp, string memory position) external onlyIoT {\n        setValue(id, temp, position, msg.sender);\n    }\n}\n\n",
  "sourcePath": "/Users/antonio/Desktop/Project/supplychain-blockchain/contracts/Supplychain.sol",
  "compiler": {
    "name": "solc",
    "version": "0.8.18+commit.87f61d96.Emscripten.clang"
  },
  "schemaVersion": "3.4.12",
  "updatedAt": "2023-05-01T11:43:12.404Z",
  "devdoc": {
    "kind": "dev",
    "methods": {},
    "version": 1
  },
  "userdoc": {
    "kind": "user",
    "methods": {},
    "version": 1
  },
  "gas": 3000000
}