{
  "contractName": "ConcreteAsset",
  "abi": [
    {
      "anonymous": false,
      "inputs": [
        {
          "indexed": true,
          "internalType": "string",
          "name": "id",
          "type": "string"
        },
        {
          "indexed": false,
          "internalType": "enum State",
          "name": "state",
          "type": "uint8"
        }
      ],
      "name": "ReportState",
      "type": "event"
    },
    {
      "anonymous": false,
      "inputs": [
        {
          "indexed": true,
          "internalType": "string",
          "name": "id",
          "type": "string"
        },
        {
          "indexed": false,
          "internalType": "enum State",
          "name": "state",
          "type": "uint8"
        },
        {
          "indexed": false,
          "internalType": "string",
          "name": "temperature",
          "type": "string"
        },
        {
          "indexed": false,
          "internalType": "string",
          "name": "position",
          "type": "string"
        },
        {
          "indexed": false,
          "internalType": "address",
          "name": "sensor",
          "type": "address"
        },
        {
          "indexed": false,
          "internalType": "address",
          "name": "actorID",
          "type": "address"
        },
        {
          "indexed": false,
          "internalType": "uint256",
          "name": "timestamp",
          "type": "uint256"
        }
      ],
      "name": "Track",
      "type": "event"
    },
    {
      "anonymous": false,
      "inputs": [
        {
          "indexed": true,
          "internalType": "string",
          "name": "id",
          "type": "string"
        },
        {
          "indexed": false,
          "internalType": "address",
          "name": "from",
          "type": "address"
        },
        {
          "indexed": false,
          "internalType": "address",
          "name": "to",
          "type": "address"
        }
      ],
      "name": "TransferKeeper",
      "type": "event"
    },
    {
      "anonymous": false,
      "inputs": [
        {
          "indexed": true,
          "internalType": "string",
          "name": "id",
          "type": "string"
        },
        {
          "indexed": false,
          "internalType": "address",
          "name": "from",
          "type": "address"
        },
        {
          "indexed": false,
          "internalType": "address",
          "name": "to",
          "type": "address"
        }
      ],
      "name": "TransferOwner",
      "type": "event"
    },
    {
      "inputs": [
        {
          "internalType": "address",
          "name": "account",
          "type": "address"
        }
      ],
      "name": "getCarrier",
      "outputs": [
        {
          "internalType": "uint256",
          "name": "",
          "type": "uint256"
        }
      ],
      "stateMutability": "view",
      "type": "function"
    },
    {
      "inputs": [
        {
          "internalType": "address",
          "name": "account",
          "type": "address"
        }
      ],
      "name": "getIoT",
      "outputs": [
        {
          "internalType": "address",
          "name": "",
          "type": "address"
        }
      ],
      "stateMutability": "view",
      "type": "function"
    },
    {
      "inputs": [
        {
          "internalType": "address",
          "name": "account",
          "type": "address"
        }
      ],
      "name": "getWH",
      "outputs": [
        {
          "internalType": "uint256",
          "name": "",
          "type": "uint256"
        }
      ],
      "stateMutability": "view",
      "type": "function"
    },
    {
      "inputs": [
        {
          "internalType": "uint256",
          "name": "inventory",
          "type": "uint256"
        }
      ],
      "name": "registerCarrier",
      "outputs": [],
      "stateMutability": "nonpayable",
      "type": "function"
    },
    {
      "inputs": [
        {
          "internalType": "address",
          "name": "account",
          "type": "address"
        }
      ],
      "name": "registerIoT",
      "outputs": [],
      "stateMutability": "nonpayable",
      "type": "function"
    },
    {
      "inputs": [
        {
          "internalType": "uint256",
          "name": "inventory",
          "type": "uint256"
        }
      ],
      "name": "registerWarehouse",
      "outputs": [],
      "stateMutability": "nonpayable",
      "type": "function"
    },
    {
      "inputs": [
        {
          "internalType": "address",
          "name": "account",
          "type": "address"
        }
      ],
      "name": "verifyCarrier",
      "outputs": [
        {
          "internalType": "bool",
          "name": "",
          "type": "bool"
        }
      ],
      "stateMutability": "view",
      "type": "function"
    },
    {
      "inputs": [
        {
          "internalType": "address",
          "name": "account",
          "type": "address"
        }
      ],
      "name": "verifyIoT",
      "outputs": [
        {
          "internalType": "bool",
          "name": "",
          "type": "bool"
        }
      ],
      "stateMutability": "view",
      "type": "function"
    },
    {
      "inputs": [
        {
          "internalType": "address",
          "name": "account",
          "type": "address"
        }
      ],
      "name": "verifyWarehouse",
      "outputs": [
        {
          "internalType": "bool",
          "name": "",
          "type": "bool"
        }
      ],
      "stateMutability": "view",
      "type": "function"
    },
    {
      "inputs": [
        {
          "internalType": "string",
          "name": "id",
          "type": "string"
        },
        {
          "internalType": "uint256",
          "name": "volume",
          "type": "uint256"
        }
      ],
      "name": "create",
      "outputs": [],
      "stateMutability": "nonpayable",
      "type": "function"
    },
    {
      "inputs": [
        {
          "internalType": "string",
          "name": "id",
          "type": "string"
        },
        {
          "internalType": "uint256",
          "name": "price",
          "type": "uint256"
        }
      ],
      "name": "forsale",
      "outputs": [],
      "stateMutability": "nonpayable",
      "type": "function"
    },
    {
      "inputs": [
        {
          "internalType": "string",
          "name": "id",
          "type": "string"
        }
      ],
      "name": "order",
      "outputs": [],
      "stateMutability": "payable",
      "type": "function"
    },
    {
      "inputs": [
        {
          "internalType": "string",
          "name": "id",
          "type": "string"
        }
      ],
      "name": "take",
      "outputs": [],
      "stateMutability": "nonpayable",
      "type": "function"
    },
    {
      "inputs": [
        {
          "internalType": "string",
          "name": "id",
          "type": "string"
        }
      ],
      "name": "delivered",
      "outputs": [],
      "stateMutability": "nonpayable",
      "type": "function"
    },
    {
      "inputs": [
        {
          "internalType": "string",
          "name": "id",
          "type": "string"
        },
        {
          "internalType": "string",
          "name": "temp",
          "type": "string"
        },
        {
          "internalType": "string",
          "name": "position",
          "type": "string"
        }
      ],
      "name": "track",
      "outputs": [],
      "stateMutability": "nonpayable",
      "type": "function"
    },
    {
      "inputs": [
        {
          "internalType": "string",
          "name": "id",
          "type": "string"
        }
      ],
      "name": "getAsset",
      "outputs": [
        {
          "components": [
            {
              "internalType": "uint256",
              "name": "volume",
              "type": "uint256"
            },
            {
              "internalType": "string",
              "name": "temperature",
              "type": "string"
            },
            {
              "internalType": "string",
              "name": "position",
              "type": "string"
            },
            {
              "internalType": "uint256",
              "name": "price",
              "type": "uint256"
            },
            {
              "internalType": "enum State",
              "name": "state",
              "type": "uint8"
            },
            {
              "internalType": "address",
              "name": "owner",
              "type": "address"
            },
            {
              "internalType": "address",
              "name": "keeper",
              "type": "address"
            }
          ],
          "internalType": "struct AbstractAsset.Asset",
          "name": "",
          "type": "tuple"
        }
      ],
      "stateMutability": "view",
      "type": "function"
    }
  ],
  "bytecode": "0x608060405234801561001057600080fd5b5061164d806100206000396000f3fe608060405260043610610110576000357c01000000000000000000000000000000000000000000000000000000009004806369bad82b116100a7578063cd5286d011610076578063cd5286d01461030c578063e38efddd14610339578063f7d5184b1461038a578063f87f4a0a146103aa57600080fd5b806369bad82b14610255578063708a416114610275578063a973fd12146102cc578063c79f5e08146102ec57600080fd5b806346f81a87116100e357806346f81a87146101ba5780634d02849c146101da5780634f377e041461021557806365508e261461023557600080fd5b80630e5ada191461011557806321e500de1461014a578063358843841461017857806340a96eae1461019a575b600080fd5b34801561012157600080fd5b506101356101303660046110cc565b6103bd565b60405190151581526020015b60405180910390f35b34801561015657600080fd5b5061016a6101653660046110cc565b6103e0565b604051908152602001610141565b34801561018457600080fd5b506101986101933660046111a2565b6103fe565b005b3480156101a657600080fd5b506101356101b53660046110cc565b6104fe565b3480156101c657600080fd5b506101986101d536600461122a565b61051f565b3480156101e657600080fd5b506101356101f53660046110cc565b600160a060020a0390811660009081526005602052604090205416151590565b34801561022157600080fd5b5061019861023036600461126f565b61075f565b34801561024157600080fd5b5061016a6102503660046110cc565b61076e565b34801561026157600080fd5b50610198610270366004611288565b61078c565b34801561028157600080fd5b506101986102903660046110cc565b336000908152600560205260409020805473ffffffffffffffffffffffffffffffffffffffff1916600160a060020a0392909216919091179055565b3480156102d857600080fd5b506101986102e736600461122a565b610963565b3480156102f857600080fd5b50610198610307366004611288565b610a0a565b34801561031857600080fd5b5061032c610327366004611288565b610bbf565b6040516101419190611353565b34801561034557600080fd5b506103726103543660046110cc565b600160a060020a039081166000908152600560205260409020541690565b604051600160a060020a039091168152602001610141565b34801561039657600080fd5b506101986103a536600461126f565b610d88565b6101986103b8366004611288565b610d94565b600160a060020a03811660009081526001602052604081205460ff165b92915050565b600160a060020a0381166000908152600260205260408120546103da565b8260405161040c91906113e4565b60405180910390207fdf51ea3d98146de0ad317352502585fef81a602689645907c34e2f9794723fb660008560405161044591906113e4565b9081526040519081900360200190206004015460ff1684843361048081600160a060020a039081166000908152600560205260409020541690565b4260405161049396959493929190611400565b60405180910390a2816000846040516104ac91906113e4565b908152602001604051809103902060010190816104c991906114e4565b50806000846040516104db91906113e4565b908152602001604051809103902060020190816104f891906114e4565b50505050565b600160a060020a03811660009081526003602052604081205460ff166103da565b80610529336103e0565b1161053357600080fd5b61053d3382610fb7565b8160405161054b91906113e4565b60405180910390206000805160206115f8833981519152600160405161057191906115aa565b60405180910390a2600160008360405161058b91906113e4565b908152604051908190036020019020600401805460ff191660018360058111156105b7576105b7611315565b0217905550816040516105ca91906113e4565b60405180910390207f4f318d4f210231e677f2842b21751e860381ab303db9094101d7061e59f43abd60008460405161060391906113e4565b90815260408051918290036020908101832060040154600160a060020a0361010090910416835233908301520160405180910390a23360008360405161064991906113e4565b908152602001604051809103902060040160016101000a815481600160a060020a030219169083600160a060020a031602179055508160405161068c91906113e4565b60405180910390207f0d7f430591ea581e3ecf48a5a885badf9ca9ce96eddb2a2ed0b24f770bb988fe6000846040516106c591906113e4565b90815260408051918290036020908101832060050154600160a060020a0316835233908301520160405180910390a23360008360405161070591906113e4565b908152602001604051809103902060050160006101000a815481600160a060020a030219169083600160a060020a031602179055508060008360405161074b91906113e4565b908152604051908190036020019020555050565b61076b60013383610fc7565b50565b600160a060020a0381166000908152600460205260408120546103da565b6107b5336000836040516107a091906113e4565b90815260405190819003602001902054610ffc565b806040516107c391906113e4565b60405180910390206000805160206115f883398151915260056040516107e991906115aa565b60405180910390a2600560008260405161080391906113e4565b908152604051908190036020019020600401805460ff1916600183600581111561082f5761082f611315565b02179055508060405161084291906113e4565b60405180910390207f0d7f430591ea581e3ecf48a5a885badf9ca9ce96eddb2a2ed0b24f770bb988fe60008360405161087b91906113e4565b90815260405190819003602001812060050154600160a060020a0316906000906108a69086906113e4565b908152604080516020928190038301812060040154600160a060020a0394851682526101009004909316918301919091520160405180910390a26000816040516108f091906113e4565b90815260405190819003602001812060040154600160a060020a0361010090910416906000906109219084906113e4565b9081526040519081900360200190206005018054600160a060020a039290921673ffffffffffffffffffffffffffffffffffffffff1990921691909117905550565b8160405161097191906113e4565b60405180910390206000805160206115f8833981519152600260405161099791906115aa565b60405180910390a260026000836040516109b191906113e4565b908152604051908190036020019020600401805460ff191660018360058111156109dd576109dd611315565b0217905550806000836040516109f391906113e4565b908152604051908190036020019020600301555050565b600081604051610a1a91906113e4565b90815260405190819003602001902054610a333361076e565b11610a3d57600080fd5b610a6633600083604051610a5191906113e4565b90815260405190819003602001902054611008565b610ab9600082604051610a7991906113e4565b90815260405190819003602001812060050154600160a060020a031690600090610aa49085906113e4565b90815260405190819003602001902054611014565b80604051610ac791906113e4565b60405180910390206000805160206115f88339815191526004604051610aed91906115aa565b60405180910390a26004600082604051610b0791906113e4565b908152604051908190036020019020600401805460ff19166001836005811115610b3357610b33611315565b021790555080604051610b4691906113e4565b60405180910390207f0d7f430591ea581e3ecf48a5a885badf9ca9ce96eddb2a2ed0b24f770bb988fe600083604051610b7f91906113e4565b90815260408051918290036020908101832060050154600160a060020a0316835233908301520160405180910390a23360008260405161092191906113e4565b610bc761107e565b600082604051610bd791906113e4565b90815260200160405180910390206040518060e001604052908160008201548152602001600182018054610c0a90611458565b80601f0160208091040260200160405190810160405280929190818152602001828054610c3690611458565b8015610c835780601f10610c5857610100808354040283529160200191610c83565b820191906000526020600020905b815481529060010190602001808311610c6657829003601f168201915b50505050508152602001600282018054610c9c90611458565b80601f0160208091040260200160405190810160405280929190818152602001828054610cc890611458565b8015610d155780601f10610cea57610100808354040283529160200191610d15565b820191906000526020600020905b815481529060010190602001808311610cf857829003601f168201915b505050918352505060038201546020820152600482015460409091019060ff166005811115610d4657610d46611315565b6005811115610d5757610d57611315565b81526004820154600160a060020a036101009091048116602083015260059092015490911660409091015292915050565b61076b60033383610fc7565b600081604051610da491906113e4565b90815260405190819003602001902054610dbd336103e0565b11610dc757600080fd5b610df033600083604051610ddb91906113e4565b90815260405190819003602001902054610fb7565b60008082604051610e0191906113e4565b90815260405190819003602001812060040154600160a060020a0361010090910416903490600081818185875af1925050503d8060008114610e5f576040519150601f19603f3d011682016040523d82523d6000602084013e610e64565b606091505b5050905080610e7257600080fd5b81604051610e8091906113e4565b60405180910390206000805160206115f88339815191526003604051610ea691906115aa565b60405180910390a26003600083604051610ec091906113e4565b908152604051908190036020019020600401805460ff19166001836005811115610eec57610eec611315565b021790555081604051610eff91906113e4565b60405180910390207f4f318d4f210231e677f2842b21751e860381ab303db9094101d7061e59f43abd600084604051610f3891906113e4565b90815260408051918290036020908101832060040154600160a060020a0361010090910416835233908301520160405180910390a233600083604051610f7e91906113e4565b908152602001604051809103902060040160016101000a815481600160a060020a030219169083600160a060020a031602179055505050565b610fc360018383611020565b5050565b600160a060020a03909116600090815260208381526040808320805460ff191660019081179091559490940190529190912055565b610fc360038383611054565b610fc360038383611020565b610fc360018383611054565b600160a060020a03821660009081526001840160205260408120805483929061104a9084906115d1565b9091555050505050565b600160a060020a03821660009081526001840160205260408120805483929061104a9084906115e4565b6040518060e0016040528060008152602001606081526020016060815260200160008152602001600060058111156110b8576110b8611315565b815260006020820181905260409091015290565b6000602082840312156110de57600080fd5b8135600160a060020a03811681146110f557600080fd5b9392505050565b60e060020a634e487b7102600052604160045260246000fd5b600082601f83011261112657600080fd5b813567ffffffffffffffff80821115611141576111416110fc565b604051601f8301601f19908116603f01168101908282118183101715611169576111696110fc565b8160405283815286602085880101111561118257600080fd5b836020870160208301376000602085830101528094505050505092915050565b6000806000606084860312156111b757600080fd5b833567ffffffffffffffff808211156111cf57600080fd5b6111db87838801611115565b945060208601359150808211156111f157600080fd5b6111fd87838801611115565b9350604086013591508082111561121357600080fd5b5061122086828701611115565b9150509250925092565b6000806040838503121561123d57600080fd5b823567ffffffffffffffff81111561125457600080fd5b61126085828601611115565b95602094909401359450505050565b60006020828403121561128157600080fd5b5035919050565b60006020828403121561129a57600080fd5b813567ffffffffffffffff8111156112b157600080fd5b6112bd84828501611115565b949350505050565b60005b838110156112e05781810151838201526020016112c8565b50506000910152565b600081518084526113018160208601602086016112c5565b601f01601f19169290920160200192915050565b60e060020a634e487b7102600052602160045260246000fd5b6006811061134f5760e060020a634e487b7102600052602160045260246000fd5b9052565b60208152815160208201526000602083015160e0604084015261137a6101008401826112e9565b90506040840151601f1984830301606085015261139782826112e9565b9150506060840151608084015260808401516113b660a085018261132e565b5060a0840151600160a060020a0380821660c08601528060c08701511660e086015250508091505092915050565b600082516113f68184602087016112c5565b9190910192915050565b61140a818861132e565b60c06020820152600061142060c08301886112e9565b828103604084015261143281886112e9565b600160a060020a0396871660608501529490951660808301525060a00152949350505050565b60028104600182168061146c57607f821691505b60208210810361148f5760e060020a634e487b7102600052602260045260246000fd5b50919050565b601f8211156114df576000818152602081206020601f860104810160208610156114bc5750805b6020601f860104820191505b818110156114db578281556001016114c8565b5050505b505050565b815167ffffffffffffffff8111156114fe576114fe6110fc565b6115128161150c8454611458565b84611495565b602080601f83116001811461154b576000841561152f5750858301515b60028086026008870290910a60001904198216178655506114db565b600085815260208120601f198616915b8281101561157a5788860151825594840194600190910190840161155b565b508582101561159a57878501516008601f88160260020a60001904191681555b5050505050600202600101905550565b602081016103da828461132e565b60e060020a634e487b7102600052601160045260246000fd5b818103818111156103da576103da6115b8565b808201808211156103da576103da6115b856fe04d59123b9511ac3435150a42bde0ad6e00dc802992d7efc3d59f97658dec6c6a2646970667358221220d148dad33313cbc29cc8a89a607278922c98a5f6dfaa4aff33ad4fcf3e48b98e64736f6c63430008120033",
  "immutableReferences": {},
  "source": "// SPDX-License-Identifier: GPL-3.0\npragma solidity ^0.8.18;\n\nlibrary Roles {\n\n    struct Role {\n        mapping(address => bool) members;\n        mapping(address => uint) levels;\n    }\n\n    function add(Role storage role, address account, uint inventory) internal {\n        role.members[account] = true;\n        role.levels[account] = inventory;\n    }\n\n    function verify(Role storage role, address account) internal view returns(bool) {\n        return role.members[account];\n    }\n\n    function get(Role storage role, address account) internal view returns(uint) {\n        return role.levels[account];\n    }\n\n    function busy(Role storage role, address account, uint volume) internal {\n        role.levels[account] -= volume;\n    }\n\n    function free(Role storage role, address account, uint volume) internal {\n        role.levels[account] += volume;\n    }  \n} \n\nabstract contract Warehouse {\n    using Roles for Roles.Role;\n\n    Roles.Role private warehouses;\n\n    modifier onlyWarehouse {\n        require( verifyWarehouse(msg.sender) );\n        _;\n    }\n\n    function verifyWarehouse(address account) public view returns(bool) {\n        return warehouses.verify(account);\n    }\n\n    function registerWarehouse(uint inventory) public {\n        warehouses.add(msg.sender, inventory);\n    }\n\n    function storeWH(address account, uint volume) internal {\n        warehouses.busy(account, volume);\n    }\n\n    function releaseWH(address account, uint volume) internal {\n        warehouses.free(account, volume);\n    }\n\n    function getWH(address account) public view returns(uint) {\n        return warehouses.get(account);\n    }\n} \n\nabstract contract Carrier {\n    using Roles for Roles.Role;\n\n    Roles.Role private carriers;\n\n    modifier onlyCarrier {\n        require( verifyCarrier(msg.sender) );\n        _;\n    }\n\n    function verifyCarrier(address account) public view returns(bool) {\n        return carriers.verify(account);\n    }\n\n    function registerCarrier(uint inventory) public {\n        carriers.add(msg.sender, inventory);\n    }\n\n    function storeCarrier(address account, uint volume) internal {\n        carriers.busy(account, volume);\n    }\n\n    function releaseCarrier(address account, uint volume) internal {\n        carriers.free(account, volume);\n    }\n\n    function getCarrier(address account) public view returns(uint) {\n        return carriers.get(account);\n    }\n} \n\nabstract contract IoT {\n\n    // sensor => owner\n    mapping(address => address) devices;\n\n    modifier onlyIoT {\n        require( verifyIoT(msg.sender) );\n        _;\n    }\n\n    function verifyIoT(address account) public view returns(bool) {\n        return devices[account] != address(0); \n    }\n\n    function registerIoT(address account) public {\n        devices[msg.sender] = account;\n    }\n\n    function getIoT(address account) public view returns(address) {\n        return devices[account];\n    }\n} \n\nenum State { nostate, registered, forsale, ordered, intransit, delivered }\n\nabstract contract AbstractAsset {\n    \n    mapping(string => Asset) assets;\n\n    struct Asset {\n        uint volume;\n        string temperature;\n        string position;\n        uint price;\n        State state;\n        address owner;\n        address keeper;\n    }\n\n    event ReportState(string indexed id, State state);\n    event TransferOwner(string indexed id, address from, address to);\n    event TransferKeeper(string indexed id, address from, address to);\n    event Track(string indexed id, State state, string temperature, string position, address sensor, address actorID, uint timestamp);\n\n    modifier onlyOwner(string memory id) {\n        require(assets[id].owner == msg.sender);\n        _;\n    }\n\n    modifier onlyKeeper(string memory id) {\n        require(assets[id].keeper == msg.sender);\n        _;\n    }\n\n    modifier isEnough(uint price) {\n        require(msg.value / 1 ether >= price);\n        _;\n    }  \n}\n\ncontract ConcreteAsset is AbstractAsset, Warehouse, Carrier, IoT {\n\n    function create(string memory id, uint volume) external { // onlyWarehouse {\n        // require(assets[id].state == State.nostate);\n\n        require(getWH(msg.sender) > volume);\n\n        storeWH(msg.sender, volume);\n\n        emit ReportState(id, State.registered);\n        assets[id].state = State.registered;\n\n        emit TransferOwner(id, assets[id].owner, msg.sender);\n        assets[id].owner = msg.sender;\n\n        emit TransferKeeper(id, assets[id].keeper, msg.sender);\n        assets[id].keeper = msg.sender;\n\n        assets[id].volume = volume;\n    }\n\n    function forsale(string memory id, uint price) external { // onlyOwner(id) onlyKeeper(id) onlyWarehouse {\n        // require(assets[id].state == State.registered || assets[id].state == State.delivered);\n\n        emit ReportState(id, State.forsale);\n        assets[id].state = State.forsale;\n\n        assets[id].price = price;\n    }\n\n    function order(string memory id) external payable  { // isEnough(assets[id].price) onlyWarehouse {\n        // require(assets[id].state == State.forsale); \n\n        require(getWH(msg.sender) > assets[id].volume);\n\n        storeWH(msg.sender, assets[id].volume);\n\n        (bool success,) = assets[id].owner.call{value: msg.value}(\"\");\n        require(success);\n\n        emit ReportState(id, State.ordered);\n        assets[id].state = State.ordered;\n\n        emit TransferOwner(id, assets[id].owner, msg.sender);\n        assets[id].owner = msg.sender;\n    }\n\n    function take(string memory id) external { // onlyCarrier {\n        // require(assets[id].state == State.ordered);\n\n        require(getCarrier(msg.sender) > assets[id].volume);\n\n        storeCarrier(msg.sender, assets[id].volume);\n\n        releaseWH(assets[id].keeper, assets[id].volume);\n\n        emit ReportState(id, State.intransit);\n        assets[id].state = State.intransit;\n\n        emit TransferKeeper(id, assets[id].keeper, msg.sender);\n        assets[id].keeper = msg.sender;\n    }\n\n    function delivered(string memory id) external { // onlyKeeper(id) onlyCarrier {\n        // require(assets[id].state == State.intransit);\n\n        releaseCarrier(msg.sender, assets[id].volume);\n\n        emit ReportState(id, State.delivered);\n        assets[id].state = State.delivered;\n\n        emit TransferKeeper(id, assets[id].keeper, assets[id].owner);\n        assets[id].keeper = assets[id].owner;\n    }\n\n    function track(string memory id, string memory temp, string memory position) external {//onlyIoT {\n        emit Track(id, assets[id].state, temp, position, msg.sender, getIoT(msg.sender), block.timestamp);\n        assets[id].temperature = temp;\n        assets[id].position = position;\n    }\n\n    function getAsset(string memory id) external view returns(Asset memory) {\n        return assets[id];\n    }\n}\n\ncontract SupplyChain is ConcreteAsset {\n\n    constructor() {\n        registerWarehouse(10000);\n        registerCarrier(10000);\n        registerIoT(msg.sender);\n    }\n\n}\n\n",
  "sourcePath": "/Users/antonio/Desktop/TestNet/contracts/Supplychain.sol",
  "compiler": {
    "name": "solc",
    "version": "0.8.18+commit.87f61d96.Emscripten.clang"
  },
  "schemaVersion": "3.4.12",
  "updatedAt": "2023-03-31T08:40:56.667Z",
  "devdoc": {
    "kind": "dev",
    "methods": {},
    "version": 1
  },
  "userdoc": {
    "kind": "user",
    "methods": {},
    "version": 1
  }
}